:100000000C9462000C948A000C948A000C948A0070
:100010000C948A000C948A000C948A000C94B4040A
:100020000C948A000C948A000C948A000C948A0028
:100030000C948A000C948A000C948A000C948A0018
:100040000C9412040C948A000C9482040C945C04AA
:100050000C948A000C948A000C948A000C948A00F8
:100060000C948A000C948A00000000080002010031
:100070000003040700000000000000000000000072
:10008000240027002A000000000023002600290089
:1000900000000000250028002B00040404040404D0
:1000A0000404020202020202030303030303010227
:1000B00004081020408001020408102001020408F6
:1000C0001020D90411241FBECFEFD8E0DEBFCDBF72
:1000D00011E0A0E0B1E0EEEAF4E102C005900D927B
:1000E000AE37B107D9F722E0AEE7B1E001C01D920B
:1000F000A535B207E1F710E0C2E6D0E004C02197D1
:10010000FE010E944F0AC136D107C9F70E94770548
:100110000C94550A0C94000090E0FC01E255FF4F4E
:10012000249186569F4FFC018491882399F090E09A
:10013000880F991FFC01E458FF4FA591B491FC0171
:10014000E057FF4F859194918FB7F894EC91E22B93
:10015000EC938FBF089590E0FC01E859FF4F249184
:10016000FC01E255FF4F3491FC01E656FF4FE4914C
:10017000EE23C9F0222339F0233001F1A8F4213015
:1001800019F1223029F1F0E0EE0FFF1FE057FF4F89
:10019000A591B4918FB7F894EC91611126C0309578
:1001A0003E233C938FBF08952730A9F02830C9F033
:1001B000243049F7809180008F7D03C080918000BA
:1001C0008F7780938000DFCF84B58F7784BDDBCFBE
:1001D00084B58F7DFBCF8091B0008F778093B00086
:1001E000D2CF8091B0008F7DF9CF3E2BDACF3FB7D1
:1001F000F8948091890190918A01A0918B01B0912E
:100200008C0126B5A89B05C02F3F19F00196A11DB2
:10021000B11D3FBFBA2FA92F982F8827BC01CD0150
:10022000620F711D811D911D42E0660F771F881FAF
:10023000991F4A95D1F708958F929F92AF92BF92DE
:10024000CF92DF92EF92FF924B015C010E94F70088
:100250006B017C010E94F7006C197D098E099F09D2
:10026000683E734081059105A8F321E0821A910848
:10027000A108B10888EEC80E83E0D81EE11CF11C6D
:1002800081149104A104B10429F7FF90EF90DF904D
:10029000CF90BF90AF909F908F900895AF92BF92F4
:1002A000CF92DF92EF92FF920F931F93CF93DF9342
:1002B0006C017B018B01040F151FEB015E01AE1871
:1002C000BF08C017D10759F06991D601ED91FC9193
:1002D0000190F081E02DC6010995892B79F7C501C0
:1002E000DF91CF911F910F91FF90EF90DF90CF9012
:1002F000BF90AF900895FC01538D448D252F30E0C1
:10030000842F90E0821B930B541710F0CF96089522
:1003100001970895FC01918D828D981761F0A28D4F
:10032000AE0FBF2FB11D5D968C91928D9F5F9F7315
:10033000928F90E008958FEF9FEF0895FC01918DCB
:10034000828D981731F0828DE80FF11D858D90E038
:1003500008958FEF9FEF0895FC01918D228D892FD5
:1003600090E0805C9F4F821B91098F7399270895BD
:100370008DE891E00E94AC0121E0892B09F420E096
:10038000822F089580E090E0892B29F00E94B80127
:1003900081110C9400000895FC01A48DA80FB92FC1
:1003A000B11DA35ABF4F2C91848D90E001968F739D
:1003B0009927848FA689B7892C93A089B1898C91BC
:1003C000837080648C93938D848D981306C002880B
:1003D000F389E02D80818F7D80830895EF92FF92D5
:1003E0000F931F93CF93DF93EC0181E0888F9B8D58
:1003F0008C8D98131AC0E889F989808185FF15C012
:100400009FB7F894EE89FF896083E889F989808134
:100410008370806480839FBF81E090E0DF91CF9103
:100420001F910F91FF90EF900895F62E0B8D10E025
:100430000F5F1F4F0F731127E02E8C8D8E110CC094
:100440000FB607FCFACFE889F989808185FFF5CFDF
:10045000CE010E94CC01F1CFEB8DEC0FFD2FF11DF1
:10046000E35AFF4FF0829FB7F8940B8FEA89FB891C
:1004700080818062CFCFCF93DF93EC01888D88237A
:10048000B9F0AA89BB89E889F9898C9185FD03C0F7
:10049000808186FD0DC00FB607FCF7CF8C9185FFDC
:1004A000F2CF808185FFEDCFCE010E94CC01E9CF54
:1004B000DF91CF910895089590E080E00895CF9363
:1004C000DF93EC0160E08E810E94AB0061E08E81E1
:1004D0000E94AB0060E08E810E94AB008BE891E04F
:1004E0000197F1F7DF91CF910895CF92DF92EF92CC
:1004F000FF920F931F93CF93DF936C017C0187E0F2
:10050000E80EF11CD0E0C0E0062F10E0B8010C2E80
:1005100002C0759567950A94E2F76170F7018191C1
:100520007F010E94AB002196C430D10579F7C60146
:10053000DF91CF911F910F91FF90EF90DF90CF90BF
:100540000C945F02CF92DF92EF92FF920F931F9372
:10055000CF93DF93EC01F62E642F8C810E94AB00C9
:100560008D818F3F19F060E00E94AB000F2D10E0ED
:100570008F8584FF25C06E0187E0C80ED11CF12C49
:10058000E12CB8010E2C02C0759567950A94E2F72C
:100590006170F60181916F010E94AB00FFEFEF1ACD
:1005A000FF0A88E0E816F10461F7CE01DF91CF91F0
:1005B0001F910F91FF90EF90DF90CF900C945F020E
:1005C000B80184E0759567958A95E1F7CE010E94A0
:1005D00075026F2DCE01DF91CF911F910F91FF908A
:1005E000EF90DF90CF900C94750240E0682F8AE284
:1005F00092E00C94A20281E00E94F5028BE39FE15D
:100600000197F1F70895CF93DF93823029F4909109
:10061000390298609093390280933D0210923E0215
:1006200080E480933F0280E18093400280E58093E4
:10063000410280912E020E948C0080912F028F3FF8
:1006400011F00E948C00809130020E948C00CAE25E
:10065000D2E09E012A5232408091390284FD0AC0C4
:1006600084E090E02196281739073CF48E810E949F
:100670008C00EFCF88E090E0F5CF8BE39DE0019711
:10068000F1F760E080912E020E94AB0060E0809163
:1006900030020E94AB0080912F028F3F19F060E082
:1006A0000E94AB008091390284FD34C063E08AE28D
:1006B00092E00E947502CBE4D6E4CE010197F1F7F7
:1006C00063E08AE292E00E9475022197F1F763E00D
:1006D0008AE292E00E94750283E592E00197F1F7C9
:1006E00062E08AE292E00E947502809139028062A3
:1006F0000E94F50284E080933A028CE00E94F502A9
:100700000E94FB0282E080933B0286E0DF91CF9162
:100710000C94F50280620E94F5028BE496E4019746
:10072000F1F78091390280620E94F50283E592E040
:100730000197F1F78091390280620E94F502D5CFCE
:1007400090913D02691710F06FEF690FE62FF0E00E
:10075000E65DFD4F9489890F80680C94F50241E0B5
:100760000E94A20281E090E00895FB010190002028
:10077000E9F73197AF01461B570BDC01ED91FC9176
:100780000280F381E02D09948F929F92AF92BF92E5
:10079000EF92FF920F931F93CF93DF93CDB7DEB706
:1007A000A1970FB6F894DEBF0FBECDBF7C01FA0152
:1007B000CB0119A2223008F42AE08E010F5D1F4FF1
:1007C000822E912CB12CA12CBF01A50194010E9475
:1007D0002D0AF901CA016A300CF5605DD8016E93EB
:1007E0008D01232B242B252B79F790E080E01097A7
:1007F00021F0BD01C7010E94B503A1960FB6F89480
:10080000DEBF0FBECDBFDF91CF911F910F91FF9043
:10081000EF90BF90AF909F908F900895695CDECF6E
:100820000C94B5031F920F920FB60F9211242F93C1
:100830003F938F939F93AF93BF9380918501909146
:100840008601A0918701B09188013091840123E055
:10085000230F2D3758F50196A11DB11D209384015A
:100860008093850190938601A0938701B0938801BE
:100870008091890190918A01A0918B01B0918C01A6
:100880000196A11DB11D8093890190938A01A093C7
:100890008B01B0938C01BF91AF919F918F913F914C
:1008A0002F910F900FBE0F901F90189526E8230FE1
:1008B0000296A11DB11DD2CF1F920F920FB60F92BB
:1008C00011242F933F934F935F936F937F938F9355
:1008D0009F93AF93BF93EF93FF938DE891E00E94B6
:1008E000CC01FF91EF91BF91AF919F918F917F913B
:1008F0006F915F914F913F912F910F900FBE0F908D
:100900001F9018951F920F920FB60F9211242F93DC
:100910008F939F93EF93FF93E0919D01F0919E0140
:100920008081E091A301F091A40182FD1BC0908120
:100930008091A6018F5F8F732091A701821741F0EC
:10094000E091A601F0E0E357FE4F958F8093A6015A
:10095000FF91EF919F918F912F910F900FBE0F906C
:100960001F9018958081F4CF1F920F920FB60F92AF
:1009700011242F933F934F935F936F937F938F93A4
:100980009F93AF93BF93EF93FF93F0E0E0E009955F
:10099000FF91EF91BF91AF919F918F917F916F9157
:1009A0005F914F913F912F910F900FBE0F901F902D
:1009B0001895CF93DF93EDE8F1E01382128288EE71
:1009C00093E0A0E0B0E084839583A683B78384E0BE
:1009D00091E09183808385EC90E09587848784EC17
:1009E00090E09787868780EC90E0918B808B81ECFC
:1009F00090E0938B828B82EC90E0958B848B86ECDD
:100A000090E0978B868B118E128E138E148EEBEBEB
:100A1000F0E02491A2E4B2E014962C931497EAEB50
:100A2000F0E0E4911596EC93159787EA90E0FC01CD
:100A30003491E32FF0E0EE0FFF1FE057FF4F459199
:100A4000549117965C934E931697E6EAF0E0E49182
:100A5000F0E0EE0FFF1FEA57FF4F459154911996B2
:100A60005C934E931897FC018491E82FF0E0EE0F11
:100A7000FF1FE458FF4FC591D4911B96DC93CE9392
:100A80001A9752961C9252978DE89FE61D969C935A
:100A90008E931C97E8812E2B28831696ED91FC915E
:100AA0001797908114968C91809589238083EAE230
:100AB000F2E01382128286E191E0918380838BE0E1
:100AC00084838FEF85838AE0868389E0878388E04B
:100AD000808787E0818786E0828713861486158663
:100AE0001686178681E0DF91CF910C9403037894EA
:100AF00084B5826084BD84B5816084BD85B5826023
:100B000085BD85B5816085BD80916E0081608093D3
:100B10006E0010928100809181008260809381003C
:100B2000809181008160809381008091800081604C
:100B3000809380008091B10084608093B1008091A7
:100B4000B00081608093B00080917A0084608093CF
:100B50007A0080917A00826080937A0080917A0096
:100B6000816080937A0080917A00806880937A0017
:100B70001092C10082E00E94030360E080E00E94C6
:100B8000A0036EE171E08AE292E00E94100461E04D
:100B900080E00E94A0036CE271E08AE292E00E9491
:100BA000100468EC70E080E090E00E941C010E945C
:100BB000FB0260E080E00E94A00367E371E08AE24C
:100BC00092E00E94100461E080E00E94A00362E4D1
:100BD00071E08AE292E00E941004E0919D01F091A0
:100BE0009E0182E08083E0919901F0919A01108248
:100BF000E0919B01F0919C018FEC80831092A50104
:100C0000E091A101F091A20186E08083E0919F0133
:100C1000F091A001808180618083E0919F01F0913B
:100C2000A001808188608083E0919F01F091A00104
:100C3000808180688083E0919F01F091A001808194
:100C40008F7D808382E00E948C0083E00E948C0074
:100C500084E00E948C0085E00E948C006CEB72E0C6
:100C600080E090E00E941C010E94FB020BE210E079
:100C7000C0E0D0E064E670E080E090E00E941C01FB
:100C8000E0914C02F0914D02808190914602892BB7
:100C90008083E0914802F091490280819091460260
:100CA000892B8083C8010197F1F7E0914802F09108
:100CB00049029081809146028095892380838091AA
:100CC0005402882351F0E0914C02F0914D02908142
:100CD00080914602809589238083E0914A02F091B9
:100CE0004B02808190914702892309F4F6C090E07D
:100CF00080E0BC0190E080E029E330E040E050E09B
:100D00000E942D0ACA01B9010E9404096B017C01ED
:100D100061E571E08DE891E00E941004A701960161
:100D2000C701B6010E94280A60E671E0811117C070
:100D30002FEF3FEF4FE75FE7C701B6010E94280A98
:100D400081113DC12FEF3FEF4FE75FE7C701B601CC
:100D50000E94C90818160CF032C164E671E08DE8F3
:100D600091E00E94B5036CE671E08DE891E00E948D
:100D700010046FE671E08DE891E00E941004A70175
:100D8000960160E070E08AEF93E40E945C080E94A4
:100D9000CE08709383016093820160E080E00E943E
:100DA000A00362E471E08AE292E00E94100461E034
:100DB00080E00E94A00361E771E08AE292E00E9475
:100DC0001004C0908201D09083010D2C000CEE081D
:100DD000FF082AE0B701A601F7FE0EC041E06DE270
:100DE0008AE292E00E94A20244275527BA014C19D8
:100DF0005D096E097F092AE08AE292E00E94C4033D
:100E000061E08EE00E94A0036AE771E08AE292E06E
:100E10000E941004E0908201F0908301C7010197C5
:100E2000883C9105B0F461E082E00E94AB0060E094
:100E300083E00E94AB0060E084E00E94AB0060E0D1
:100E400085E00E94AB006CE271E080E090E00E94DF
:100E50001C01C701895C910986399105B0F461E0F4
:100E600083E00E94AB0060E084E00E94AB0060E0A1
:100E700085E00E94AB0060E082E00E94AB006CE283
:100E800071E080E090E00E941C01C7018F55914005
:100E90008436910508F0FFC061E084E00E94AB0059
:100EA00060E083E00E94AB0060E085E00E94AB0060
:100EB00060E082E00E94AB006CE271E080E090E0D4
:100EC0000E941C01209709F4D5CE0E94B801882306
:100ED00009F4D0CE0E940000CDCE0E94F700AB01F5
:100EE000BC0180914E0290914F02B0E0A0E0885585
:100EF000994EAF4FBF4F840F951FA61FB71F80930A
:100F0000500290935102A0935202B0935302E09189
:100F10004A02F0914B02808190914702892381F42B
:100F20000E94F700C0905002D0905102E09052020F
:100F3000F0905302C616D706E806F90640F7D7CE5A
:100F40000E94F70020914E0230914F02620F731FF2
:100F5000811D911D60935002709351028093520243
:100F600090935302E0914A02F0914B02808190915C
:100F70004702892381F00E94F700C0905002D09070
:100F80005102E0905202F0905302C616D706E806CE
:100F9000F90640F7ACCE0E94F70020914E02309146
:100FA0004F02A90145505109209150023091510240
:100FB000FA01E21BF30BCF01860F971F9ACE2FEF9A
:100FC0003FEF4FE75FE4C701B6010E94B60918166C
:100FD0001CF468E671E0C3CE2FEF3FEF4FE75FEC04
:100FE000C701B6010E94C90887FDF3CF2AE037ED9B
:100FF00043EA5BE3C701B6010E945D082B013C0197
:101000000E94D5084B015C010E9404099B01AC01C0
:10101000C301B2010E945C082B013C012AE0B5012A
:10102000A4018DE891E00E94C4036EE28DE891E096
:101030000E94EE0120E030E040E251E4C301B20141
:101040000E94BB092B013C010E94D5084B01B12C29
:10105000A12C2AE0B501A4018DE891E00E94C4030F
:10106000C501B4010E9404099B01AC01C301B20196
:101070000E945C0820E030E040E251E40E94BB099D
:101080000E94D508AB0170E060E02AE08DE891E0B5
:101090000E94C40368CEF3ECEF16F1E0FF060CF4F7
:1010A00011CF61E085E00E94AB0060E083E00E9428
:1010B000AB0060E084E0FACE5058BB27AA270E941C
:1010C00074080C947C090E946E0938F00E9475091E
:1010D00020F039F49F3F19F426F40C946B090EF4B8
:1010E000E095E7FB0C946509E92F0E948D0958F300
:1010F000BA17620773078407950720F079F4A6F5FD
:101100000C94AF090EF4E0950B2EBA2FA02D0B0115
:10111000B90190010C01CA01A0011124FF27591B3C
:1011200099F0593F50F4503E68F11A16F040A22F42
:10113000232F342F4427585FF3CF469537952795B3
:10114000A795F0405395C9F77EF41F16BA0B620BB2
:10115000730B840BBAF09150A1F0FF0FBB1F661FF9
:10116000771F881FC2F70EC0BA0F621F731F841F3C
:1011700048F4879577956795B795F7959E3F08F062
:10118000B0CF9395880F08F09927EE0F9795879524
:1011900008950E94410908F481E008950E94D5084D
:1011A0006894B1110C94B00908950E94950988F0D3
:1011B0009F5798F0B92F9927B751B0F0E1F0660F1B
:1011C000771F881F991F1AF0BA95C9F714C0B1305C
:1011D00091F00E94AF09B1E008950C94AF09672F18
:1011E000782F8827B85F39F0B93FCCF3869577958B
:1011F0006795B395D9F73EF4909580957095619574
:101200007F4F8F4F9F4F0895E89409C097FB3EF49E
:1012100090958095709561957F4F8F4F9F4F992343
:10122000A9F0F92F96E9BB279395F69587957795C1
:101230006795B795F111F8CFFAF4BB0F11F460FF81
:101240001BC06F5F7F4F8F4F9F4F16C0882311F0D9
:1012500096E911C0772321F09EE8872F762F05C0ED
:10126000662371F096E8862F70E060E02AF09A9588
:10127000660F771F881FDAF7880F9695879597F97D
:101280000895990F0008550FAA0BE0E8FEEF161617
:101290001706E807F907C0F012161306E407F5076A
:1012A00098F0621B730B840B950B39F40A2661F0DE
:1012B000232B242B252B21F408950A2609F4A14081
:1012C000A6958FEF811D811D089597F99F6780E88E
:1012D00070E060E008959FEF80EC089500240A9488
:1012E0001616170618060906089500240A94121601
:1012F0001306140605060895092E0394000C11F434
:10130000882352F0BB0F40F4BF2B11F460FF04C0E0
:101310006F5F7F4F8F4F9F4F089557FD9058440F39
:10132000551F59F05F3F71F04795880F97FB991F44
:1013300061F09F3F79F08795089512161306140601
:10134000551FF2CF4695F1DF08C01616170618068E
:10135000991FF1CF86957105610508940895E89469
:10136000BB2766277727CB0197F908950E9441098B
:1013700008F48FEF08950E94CE090C947C090E9416
:101380006E0938F00E94750920F0952311F00C9435
:1013900065090C946B0911240C94B0090E948D0905
:1013A00070F3959FC1F3950F50E0551F629FF001B8
:1013B000729FBB27F00DB11D639FAA27F00DB11DD1
:1013C000AA1F649F6627B00DA11D661F829F22275A
:1013D000B00DA11D621F739FB00DA11D621F839FE1
:1013E000A00D611D221F749F3327A00D611D231FB7
:1013F000849F600D211D822F762F6A2F11249F5705
:1014000050409AF0F1F088234AF0EE0FFF1FBB1F07
:10141000661F771F881F91505040A9F79E3F5105C6
:1014200080F00C9465090C94B0095F3FE4F3983E9A
:10143000D4F3869577956795B795F795E7959F5F70
:10144000C1F7FE2B880F911D9695879597F9089502
:101450000E944109880B990B0895A1E21A2EAA1B3C
:10146000BB1BFD010DC0AA1FBB1FEE1FFF1FA21754
:10147000B307E407F50720F0A21BB30BE40BF50B51
:10148000661F771F881F991F1A9469F760957095DA
:10149000809590959B01AC01BD01CF010895EE0FA1
:0E14A000FF1F0590F491E02D0994F894FFCF02
:1014AE0000000000EE014E017B013B02AC018A01FF
:1014BE009E0100000000AF034E015C025B024D690D
:1014CE007461205072616D65737469003231303809
:1014DE003039363031390050656E67756B75726113
:1014EE006E004B6574696E676769616E2041697243
:1014FE0000486173696C2053656E736F72203A00F9
:10150E006E616E00696E66006F766600636D002018
:0E151E000054696E676769203A00436D000053
:00000001FF
